:020000040800F2
:10000000F8060020D10700081103000813030008B8
:10001000170300081B0300081F030008000000006E
:1000200000000000000000000000000023030008A2
:10003000250300080000000027030008290300082A
:10004000EB070008EB070008EB070008EB070008C8
:10005000EB070008EB070008EB070008EB070008B8
:10006000EB070008EB070008EB070008EB070008A8
:10007000EB070008EB070008EB070008EB07000898
:10008000EB070008EB070008EB070008EB07000888
:10009000EB070008EB070008EB070008EB07000878
:1000A000EB070008EB070008EB070008EB07000868
:1000B000EB070008EB070008EB070008EB07000858
:1000C000EB070008EB070008EB070008EB07000848
:1000D000EB070008EB070008EB070008EB07000838
:1000E000EB070008EB070008EB070008EB07000828
:1000F000EB070008EB070008EB070008EB07000818
:10010000EB070008EB070008EB070008EB07000807
:10011000EB070008EB070008EB070008EB070008F7
:10012000EB070008EB070008EB070008EB070008E7
:10013000EB070008EB070008EB070008EB070008D7
:10014000EB070008EB070008EB070008EB070008C7
:10015000EB070008EB0700087B020008EB0700082C
:10016000EB070008EB070008EB070008EB070008A7
:10017000EB070008EB070008EB070008EB07000897
:10018000EB070008EB07000800F002F800F041F868
:100190000AA090E8000C82448344AAF10107DA45E2
:1001A00001D100F036F8AFF2090EBAE80F0013F0F3
:1001B000010F18BFFB1A43F001031847A01A0000F3
:1001C000C01A0000103A24BF78C878C1FAD8520784
:1001D00024BF30C830C144BF04680C6070470000C1
:1001E0000023002400250026103A28BF78C1FBD840
:1001F000520728BF30C148BF0B607047642901F027
:100200002F84002070471FB501F022FD1FBD10B5DF
:1002100010BD01F0EDFC1146FFF7F5FF00F008F806
:1002200001F00BFD03B4FFF7F2FF03BC00F072FA1C
:1002300008B54FF4A06000F0EBFAA82000F0E8F950
:100240004FF4E13000F074FA64201C4B1C4A510654
:1002500000901C4800F072F9012280211848001F0C
:1002600001F000F86421174800F0BAF904E01648DC
:100270000078401C14490870F9E710B513A001F08C
:10028000AFFB1148017813A001F0AAFB4FF02051F9
:100290000C4800F066FC60B111A001F0A1FB07481A
:1002A000017816A001F09CFB4FF02051054800F0AA
:1002B00074FC6421034800F093F910BD3400002061
:1002C00004100140B8640240000000204954210D90
:1002D0000A00000074656D703D25640D0A00000081
:1002E000444D41207472616E736665722066696E5A
:1002F0006973686564210D0A000000007468652058
:10030000646174612069732025640D0A0000000097
:10031000704700BFFEE700BFFEE700BFFEE700BF7B
:10032000FEE7704770477047704700000CB500202B
:10033000019000907648006840F48030744908606D
:1003400000BF7348006800F4003000900198401C22
:100350000190009818B90198B0F5A04FF1D16C4800
:10036000006800F4003010B10120009001E000208E
:1003700000900098012846D165484030006840F060
:1003800080506349403108606248006840F4404052
:10039000604908605E48083000685D4908310860BF
:1003A0000846006840F4004008600846006840F4D1
:1003B000A05008605848091F0860081F006840F0F6
:1003C0008070091F086000BF5148006800F000708D
:1003D0000028F9D040F20570504908604C480830B8
:1003E000006820F003004A490831086008460068A8
:1003F00040F00200086000BF45480830006800F087
:100400000C000828F8D10CBD10B54548006840F430
:100410007000434908603E48006840F001003C49D4
:10042000086000203A4908310860394800683D49B1
:100430000840374908603C48091D0860081F0068EB
:1004400020F48020091F0860002031490C31086029
:10045000FFF76CFF4FF0006031498039086010BD34
:1004600070B500200022022300240221284D083507
:100470002D6805F00C0020B1042806D0082834D1DE
:1004800007E02A4D2A4E356033E02A4D284E35606C
:100490002FE01F4D2D1D2D68C5F380541C4D2D1DC3
:1004A0002D6805F03F0154B1224DB5FBF1F5184E12
:1004B000361D3668C6F3881605FB06F209E01B4DAB
:1004C000B5FBF1F5124E361D3668C6F3881605FBEE
:1004D00006F20F4D2D1D2D68C5F301456D1C6B00F7
:1004E000B2FBF3F5124E356003E0104D104E35604F
:1004F00000BF00BF064D08352D68C5F303150E4E2D
:10050000705D0B4D2D68C540094E356070BD000013
:10051000003802400070004008544007003C024090
:1005200088ED00E0FFFFF6FE103000240024F40008
:100530000400002000127A00080000202DE9F0419C
:1005400090B004460D4617461E46DDF858802F48E9
:10055000844204D90121880501F0ECF803E001216F
:10056000480501F0E7F8204600F0C2F900BF204638
:1005700000F0E7FA0028FAD101950297039604905B
:10058000CDF8148006904FF480600790002008900A
:1005900009900A904FF480300B9000200C900320BB
:1005A0000D9000200E900F9001A9204600F042FA15
:1005B000012210211548B83000F003FB46208DF8C9
:1005C000000003208DF8010002208DF802000120B8
:1005D0008DF80300684600F020F910B0BDE8F08106
:1005E00070B504460D460021204600F05DFA00BFBC
:1005F000204600F0A6FA0028FAD12946204600F04D
:1006000074FA0121204600F04FFA70BD00640240E8
:1006100010B504466FF0040000F04CF9E11704EB4C
:100620005171C1F3C701394A11701046007800EBCF
:100630004001C1EBC0104FF6FF7101EAC000344920
:10064000088010BD0146314A12784A434FF0E0233A
:100650005A6100229A611A46126942F001021A6137
:1006600000BF4FF0E022106900F001021AB100F45F
:100670008032002AF5D04FF0E022126922F0010208
:100680004FF0E0231A6100229A6170470146204A28
:1006900012884A434FF0E0235A6100229A611A46B9
:1006A000126942F001021A6100BF4FF0E0221069A6
:1006B00000F001021AB100F48032002AF5D04FF0A8
:1006C000E022126922F001024FF0E0231A610022B9
:1006D0009A61704770B504464FF4077094FBF0F0D0
:1006E000C6B24FF4077094FBF0F100FB114085B2E5
:1006F00005E04FF40770FFF7C9FF701EC6B2002E69
:10070000F7D115B12846FFF7C1FF70BD18000020D2
:100710001A000020014600BF704700BF2A4A128815
:1007200002F04002002AF9D0C2B2274B9A807047EB
:1007300010B588B004460121022000F0FBFF012122
:10074000102001F051F807220621204800F0B5FBE7
:10075000072211461D4800F0B0FBC0200690022081
:100760008DF81C008DF81D0000208DF81E00012062
:100770008DF81F0006A9154800F014FB0294002014
:10078000ADF80C00ADF80E00ADF81000ADF8140097
:100790000C20ADF8120002A90B4800F02EFC01213C
:1007A000094800F0B2FC25208DF8040003208DF8E4
:1007B00005008DF8060001208DF8070001A800F063
:1007C0002CF808B010BD00000010014000040240E9
:1007D0000948804709480047FEE7FEE7FEE7FEE7D5
:1007E000FEE7FEE7FEE7FEE7FEE7FEE70448054911
:1007F000054A064B704700000904000889010008FB
:10080000F8000020F8060020F8020020F80200207E
:1008100032490143324A1160704770B5002100230C
:100820000F22C4781CB32E4C246804F4E064C4F591
:10083000E064C4F30721C1F10404E3B20A4144783F
:100840009C40E1B28478144021430C07210E254CD2
:1008500005786155047804F01F050124AC40057843
:100860006D11AD0005F1E025C5F8004109E00478FF
:1008700004F01F050124AC401B4D0678761145F8A5
:10088000264070BD194A0A400243154B1B1F1A60CF
:10089000704739B1124A121D12680243104B1B1DDA
:1008A0001A6006E00E4A121D126882430C4B1B1D93
:1008B0001A607047042808D14FF0E021096941F01F
:1008C00004014FF0E022116107E04FF0E0210969D7
:1008D00021F004014FF0E022116170470000FA0599
:1008E0000CED00E000E400E080E100E080FFFF1F8D
:1008F000016821F001010160002101604160816017
:10090000C160016121214161DB49884204D13D215F
:10091000D94A103A91608CE0D7491831884205D104
:100920004FF47461D44A103A916082E0D249303178
:10093000884205D14FF47411CF4A103A916078E0A3
:10094000CD494831884205D14FF07461CA4A103A06
:1009500091606EE0C8496031884204D1C749C64AF7
:10096000103AD16065E0C4497831884204D1C44965
:10097000C14A103AD1605CE0BF499031884204D14D
:10098000C049BD4A103AD16053E0BB49A831884202
:1009900005D14FF03D51B84A103AD16049E0BA490B
:1009A000884204D13D21B84A083A116041E0B64975
:1009B0001831884205D14FF47461B34A083A116086
:1009C00037E0B1493031884205D14FF47411AE4A55
:1009D000083A11602DE0AC494831884205D14FF00A
:1009E0007461A94A083A116023E0A749603188423E
:1009F00004D1A249A44A121F11601AE0A249783119
:100A0000884204D19E49A04A121F116011E09E49FC
:100A10009031884204D19B499B4A121F116008E023
:100A20009949A831884204D14FF03D51964A121F8E
:100A30001160704710B500220268944B1A40CC68D0
:100A40000B6823434C6923438C692343CC692343BC
:100A50000C6A23434C6A23438C6A23434C6B234325
:100A60008C6B23431A430260426922F00702D1E9EA
:100A70000B3423431A4342610B6943604B68836024
:100A80008B68C36010BD0021016041608160C1605E
:100A9000016141618161C161016241628162C16242
:100AA000016341638163704721B1026842F0010232
:100AB000026003E0026822F001020260704721B187
:100AC000026842F40042026003E0026822F400423D
:100AD0000260704721B1026842F02002026003E028
:100AE000026822F0200202607047416070470146B0
:100AF000486880B2704722B1036843F40023036062
:100B000003E0036823F4002303600161704721B10F
:100B1000026842F48022026003E0026822F480222C
:100B2000026070470AB1016100E0C1607047014690
:100B300000200A6802F400220AB1012000E000202F
:100B40007047014600200A6802F001020AB1012044
:100B500000E000207047014600204A6902F038009A
:100B6000704730B503460A4600200024464DAB428C
:100B700002D24149103901E04349103902F00055D1
:100B80000DB14C6800E00C68414D2C4004EA0205B0
:100B90000DB1012000E0002030BD02463A4B9A42E0
:100BA00002D23548103801E03748103801F00053C0
:100BB0001BB1374B0B40C36002E0354B0B408360E9
:100BC000704710B501F080034BB122B1436943F087
:100BD0008003436103E0436923F08003436180297C
:100BE0000BD02AB1036801F01E042343036004E024
:100BF000036801F01E04A343036010BD70B50246F4
:100C0000002000240025204EB24202D21A4B103B95
:100C100001E01D4B103B1F4E0E4036B11E2606EA6A
:100C2000D124166806EA040502E0566906F080053C
:100C300001F000560EB15C6800E01C68144E3440B0
:100C400004EA010616B10DB1012000E0002070BDDC
:100C500002460D4B9A4202D20748103801E00A487A
:100C6000103801F000531BB1094B0B40C36002E088
:100C7000074B0B4083607047106002403D0000202E
:100C8000400F002000003D20106402403F801CF017
:100C90007D0F7D0F3C0F3C0F10B5044698488442F1
:100CA00008D10121084600F0B0FD0021012000F02C
:100CB000ACFD76E09348844208D10121022000F087
:100CC000A4FD0021022000F0A0FD6AE08E488442CD
:100CD00008D10121042000F098FD0021042000F03B
:100CE00094FD5EE08948844208D10121082000F08B
:100CF0008CFD0021082000F088FD52E084488442E9
:100D000008D10121102000F080FD0021102000F00A
:100D10007CFD46E07F48844208D10121202000F07C
:100D200074FD0021202000F070FD3AE07A488442F2
:100D300008D10121402000F068FD0021402000F092
:100D400064FD2EE07548844208D10121802000F026
:100D50005CFD0021802000F058FD22E070488442B4
:100D600008D10121801500F050FD0021A01500F0F0
:100D70004CFD16E06B48844208D10121401500F07B
:100D800044FD0021601500F040FD0AE06648844201
:100D900007D10121001500F038FD0021201500F0D9
:100DA00034FD10BDF0B50A4600210023002400BF29
:100DB0003DE0012505FA01F3156805EA03049C42AC
:100DC00034D105684F000326BE40B5430560157950
:100DD0004E00B5400668354305601579012D02D0F7
:100DE0001579022D16D185684F000326BE40B54304
:100DF000856055794E00B540866835438560456805
:100E000001268E40B5434560456896798E40B6B25E
:100E100035434560C5684F000326BE40B543C560F5
:100E2000D5794E00B540C6683543C560491C1029C8
:100E3000BFD3F0BD4FF6FF71016000210171417118
:100E40008171C171704708B54FF480320092009AE9
:100E50000A430092009AC261C161009AC261C269EC
:100E60000092C269009208BD0246002013690B403F
:100E70000BB1012000E0002070470146086980B2F4
:100E800070470246002053690B400BB1012000E07F
:100E9000002070470146486980B27047018370475F
:100EA000418370470AB1018300E04183704741618B
:100EB000704742694A4042617047F0B50023002400
:100EC0004D07ED0E02FA05F3CE1000F1200555F89E
:100ED00026504E07F70E0F26BE40B543CF1000F147
:100EE000200646F82750CE1000F1200555F8265070
:100EF00045EA0304CE1000F1200545F82640F0BD78
:100F0000000002400004024000080240000C0240C1
:100F1000001002400014024000180240001C024071
:100F200000200240002402400028024010B5044680
:100F3000FA48844208D10121102000F0AAFC0021C7
:100F4000102000F0A6FC57E0F548844209D10121A9
:100F5000480400F08DFC00214FF4003000F088FCC4
:100F60004AE0F048844209D10121880400F080FC65
:100F700000214FF4802000F07BFC3DE0EA488442F1
:100F800009D10121C80400F073FC00214FF40020B6
:100F900000F06EFC30E0E548844209D101210805EB
:100FA00000F066FC00214FF4801000F061FC23E0AB
:100FB000DF48844208D10121202000F06AFC002192
:100FC000202000F066FC17E0DA48844209D10121B4
:100FD000880700F04DFC00214FF0804000F048FCF5
:100FE0000AE0D548844207D10121400500F040FCC9
:100FF0000021600500F03CFC10BD2DE9FF470546CF
:101000000E460024A14600BFA046B08900B100BF33
:101010002C8A24F44054F08804432C82AC8941F299
:101020000C608443B08831890843718908430443C4
:10103000AC81AC8A24F44074B0890443AC82684625
:1010400000F0A7FAB548854202D0B948854202D1DE
:10105000DDF80C9001E0DDF80890A88900F400406C
:1010600040B109EBC90000EB091031684900B0FB41
:10107000F1F707E009EBC90000EB091031688900BE
:10108000B0FBF1F76420B7FBF0F004012009642104
:1010900001FB1078A88900F4004040B1322000EB39
:1010A000C800B0FBF1F000F00700044308E0322074
:1010B00000EB08106421B0FBF1F000F00F000443D6
:1010C0002C81BDE8FF874FF416510160002181801B
:1010D000C18001810C21418100218181704710B5BF
:1010E00002460020108A20F470600B884C8823434D
:1010F0008C882343CC8823431843108210BD0021E1
:10110000018041808180C180704721B1828942F491
:101110000052828104E082894DF6FF731A40828179
:101120007047028B02F47F420283028B0A430283E0
:10113000704721B1828942F40042828103E08289B2
:10114000C2F30E028281704721B1828A42F40062AA
:10115000828204E0828A4FF2FF731A4082827047D3
:10116000C1F308028280704701468888C0F30800F6
:101170007047028A4FF6F0731A400282028A0A43CD
:101180000282704721B1828942F00202828104E02A
:1011900082894FF6FD731A408281704782894FF22F
:1011A000FF731A40828182890A4382817047028AD2
:1011B0004FF6DF731A400282028A0A4302827047A6
:1011C00021B1028A42F48042028204E0028A4BF694
:1011D000FF731A4002827047818941F001018181C9
:1011E000704721B1828A42F00802828204E0828A3A
:1011F0004FF6F7731A4082827047028BD2B2028395
:10120000028B42EA01220283704721B1828A42F0B6
:101210002002828204E0828A4FF6DF731A408282C3
:10122000704721B1828A42F01002828204E0828AF1
:101230004FF6EF731A4082827047828A4FF6FB7333
:101240001A408282828A0A438282704721B1828A4E
:1012500042F00202828204E0828A4FF6FD731A4055
:10126000828270471AB1838A0B43838202E0838AA9
:101270008B4383827047F0B5034600240026002587
:10128000002040F66A17B94200D100BF1846C1F3EA
:10129000421401F01F06012707FA06F5012C01D1BF
:1012A0000C3004E0022C01D1103000E014301AB1EF
:1012B00007682F43076002E00768AF430760F0BD8F
:1012C00002460020B1F5007F00D100BF13880B401B
:1012D0000BB1012000E00020704701F40072B2F56C
:1012E000007F00D100BFCA430280704770B502463C
:1012F000002400230025002040F66A16B14200D1E8
:1013000000BFC1F3421501F01F03012606FA03F3E3
:10131000012D13D19689334017E0000000100140E1
:101320000044004000480040004C00400050004095
:101330000014014000780040007C0040022D02D1E2
:10134000168A334001E0968A33400C12012606FAD1
:1013500004F41688344013B10CB1012000E00020E1
:1013600070BD10B50022002340F66A14A14200D1DE
:1013700000BF0A1201249440A3B2DC43048010BDD4
:10138000F948006840F00100F74908600020F6497C
:1013900008310860F4480068F4490840F2490860E0
:1013A000F348091D0860F348EF4984310860F048AC
:1013B0001038091D0860EC48006820F48020EA49D4
:1013C00008600020E8490C310860E7498C3108606A
:1013D00070470021E44A921C117011460870704752
:1013E00010B501460022002300204A11012A02D133
:1013F000DD4C236808E0022A03D1DB4C70342368FB
:1014000002E0D94C7434236801F01F020124944097
:101410001C400CB1012000E0002010BD38B50020B8
:1014200000900024002500BF3120FFF7D9FF0546BA
:101430000098401C00900098B0F5A04F01D0002DFE
:10144000F2D03120FFF7CCFF08B1012400E00024E6
:10145000204638BD01460020C34A106820F0F8003D
:1014600040EAC10010607047C3490860704700211E
:10147000BD4A703211701170012802D004280AD1BF
:1014800004E00121B84A7032117005E00521B64A26
:101490007032117000E000BF00BF7047B7490860AC
:1014A000704770B5049C41EA82150126C6EB5306CD
:1014B00045EA0645054345EA0465AB4E361D3560F1
:1014C00070BDAD4908667047820142EA0172A64BC1
:1014D00084331A607047A8498866704710B5830145
:1014E00043EA016343EA02739F4C8834236010BDD2
:1014F000A14908677047A049C864704702460020A8
:10150000994B0833186820F0EC6042EA0103184355
:10151000954B08331860704702460020924B083301
:10152000186820F0784042EA010318438E4B0833D4
:1015300018607047014600208B4A0832106820F07E
:10154000030008431060704787480830006800F0C7
:101550000C00704701460020834A0832106820F0D2
:10156000F000084310607047014600207E4A0832B0
:10157000106820F4E05008431060704701460020D6
:10158000794A0832106820F4604040EAC1001060D7
:101590007047F0B500210022002402250026022316
:1015A000714F08373F6807F00C0121B1042905D0BD
:1015B000082937D105E0724F076036E0714F0760A8
:1015C00033E0694F3F1D3F68C7F38056664F3F1DAC
:1015D0003F6807F03F036EB16A4FB7FBF3F7DFF8E0
:1015E00088C10CF1040CDCF800C0CCF3881C07FBAC
:1015F0000CF40CE0624FB7FBF3F7DFF86CC10CF1B1
:10160000040CDCF800C0CCF3881C07FB0CF4564F2C
:101610003F1D3F68C7F301477F1C7D00B4FBF5F712
:10162000076002E0564F076000BF00BF4E4F08370B
:101630003F6807F0F0010909534F7A5C0768D7400B
:101640004760494F08373F6807F4E051890A4E4F19
:101650007A5C4768D7408760434F08373F6807F494
:101660006041490B484F7A5C4768D740C760F0BD7E
:10167000002100F44072B2F5407F0AD13A4A0832A4
:10168000116821F4F811414A02401143364A0832E8
:101690001160354A70321268C0F30B031A43324BA3
:1016A00070331A60704735494439086070473349D0
:1016B000403908607047364908607047014600208D
:1016C000294A8C32106820F01F004A1E1043264A17
:1016D0008C321060704701460020234A8C3210681B
:1016E00020F4F8504A1E40EA02201F4A8C32106053
:1016F0007047014600201C4A8C32106820F44010CC
:1017000008431060704701460020174A8C32106869
:1017100020F4400008431060704701460020124A40
:101720008C32106820F4403008431060704719492B
:101730000860704739B10C4A3032126802430A4BD4
:1017400030331A6006E0084A303212688243064B92
:1017500030331A607047F9B1034A343212680243D9
:10176000014B34331A601CE000380240FFFFF6EAF8
:10177000103000240030002000004742800E474215
:101780000024F40000127A0022000020FFFCFF0F6A
:101790005C014742E01147428F4A126882438E4BF8
:1017A0001A60704739B18C4A121D126802438A4B85
:1017B0001B1D1A6006E0884A121D12688243864B80
:1017C0001B1D1A60704739B1834A0C3212680243FC
:1017D000814B0C331A6006E07F4A0C321268824358
:1017E0007D4B0C331A60704739B17B4A1032126856
:1017F0000243794B10331A6006E0774A10321268C0
:101800008243754B10331A60704739B1724A243ADB
:1018100012680243704B243B1A6006E06E4A243A79
:10182000126882436C4B243B1A60704739B16A4A94
:10183000203A12680243684B203B1A6006E0664A71
:10184000203A12688243644B203B1A60704739B1DA
:10185000614A1C3A126802435F4B1C3B1A6006E067
:101860005D4A1C3A126882435B4B1C3B1A6070470E
:1018700039B1594A143A12680243574B143B1A6063
:1018800006E0554A143A12688243534B143B1A60DF
:10189000704739B1504A103A126802434E4B103B20
:1018A0001A6006E04C4A103A126882434A4B103BD9
:1018B0001A60704739B1484A1C3212680243464BDD
:1018C0001C331A6006E0444A1C3212688243424BC1
:1018D0001C331A60704739B13F4A20321268024304
:1018E0003D4B20331A6006E03B4A203212688243A7
:1018F000394B20331A60704739B1374A24321268A5
:101900000243354B24331A6006E0334A243212680E
:101910008243314B24331A60704739B12E4A2C323E
:10192000126802432C4B2C331A6006E02A4A2C32F0
:1019300012688243284B2C331A60704739B1264A0B
:10194000303212680243244B30331A6006E0224AD8
:10195000303212688243204B30331A6070470128BE
:1019600008D11D493C31096841F008011A4A3C324E
:10197000116007E018493C31096821F00801164A56
:101980003C321160704739B1134A273A127802434A
:10199000114B273B1A7006E00F4A273A1278824310
:1019A0000D4B273B1A7070470B484030006840F0E1
:1019B0008070094940310860704701460020064A9E
:1019C000283A12680A400AB1012000E0002070475E
:1019D00001492639087070473438024070470000CA
:1019E0000FB4044910B503AA029800F0D3F810BC54
:1019F0005DF814FB1C0000202DE9F0410E46044662
:101A0000002020622046E168884730B3252805D0B1
:101A1000D4E901219047206A401CF2E7E1682046A2
:101A200000278847050018D0A5F14100192802D8E1
:101A300020354FF400673246294620462760FEF7DE
:101A4000DDFB40B1012804D0F61D26F0070608365C
:101A5000D8E7361DD6E72846DAE7206ABDE8F081E8
:101A60002DE9F0410646002410687529314616A577
:101A700010D0AFF30080002802DA404213A507E03F
:101A800031688A0701D512A502E0490704D511A5DE
:101A9000012401E0AFF3008000210A2206F12407AF
:101AA00009E0B0FBF2FCB0FBF2F302FB1C003030AB
:101AB00078541846491C0028F3D123462A4630465C
:101AC000BDE8F04100F00CB8000000002D0000005F
:101AD0002B000000200000007047704770477047DF
:101AE0002DE9F0470D4699469246044600F1240838
:101AF0000168880604D5E06921F01001216000E04A
:101B00000120A84201DD471B00E00027A1697A19E6
:101B100002EB0900081AA0612078C00602D4204612
:101B2000AFF30080002608E0D4E901211AF806008E
:101B30009047206A401C761C20624E45F4DB2078DA
:101B4000C0060AD52046AFF3008006E0D4E90121A3
:101B500030209047206A401C2062381EA7F1010700
:101B6000F4DC07E0D4E9012118F805009047206A69
:101B7000401C2062281EA5F10105F3DC2046AFF3CE
:101B800000802078000602D50220BDE8F087012001
:101B9000FBE70000074B70B50D467B4400F011F8E1
:101BA0000446284600F020F810B14FF0FF3070BD19
:101BB000204670BD7DEBFFFF01694A1C0261087879
:101BC000704700B58FB0CDE901310021059105497D
:101BD0007944CDE9031011466846FFF70DFF0FB0B9
:101BE00000BD0000E5FFFFFF007B00F080007047B4
:101BF000754600F029F8AE4605006946534620F0C8
:101C00000700854618B020B5FEF7F0FDBDE820407E
:101C10004FF000064FF000074FF000084FF0000BA8
:101C200021F00701AC46ACE8C009ACE8C009ACE85B
:101C3000C009ACE8C0098D4670470446AFF3008088
:101C40002046FEF7EFFA0000004870479800002099
:101C50004FF04070E1EE100A704700007C1C000855
:101C60000000002034000000C4010008B01C00087F
:101C700034000020C4060000E0010008000000005D
:101C8000007A030A000000000000000001020304C3
:101C90000607080900000000000000000000000026
:101CA0000000010203040102030406070809000002
:040000050800018965
:00000001FF
